:10000000001000208D110000BF110000C111000080
:10001000BD110000BD110000BD110000BD110000A8
:10002000BD110000BD110000BD110000C311000092
:10003000BD110000BD110000C5110000C711000076
:10004000110E0000CB110000E9020000CF110000EA
:10005000D1110000D3110000D5110000D71100000C
:10006000D9110000DB110000DD110000DF110000DC
:10007000E1110000E3110000E5110000E7110000AC
:10008000E911000000000000000000000000000076
:100090000000000000000000000000000000000060
:1000A0000000000000000000000000000000000050
:1000B0000000000000000000000000000000000040
:1000C0000000000000000000000000000000000030
:1000D0000000000000000000000000000000000020
:1000E0000000000000000000000000000000000010
:1000F0000000000000000000000000000000000000
:1001000010B5064C2378002B07D1054B002B02D0ED
:10011000044800E000BF0123237010BD70000020E0
:10012000000000007414000008B5084B002B03D039
:100130000748084900E000BF07480368002B03D0C8
:10014000064B002B00D0984708BDC04600000000B9
:1001500074140000740000207000002000000000F3
:10016000164B002B00D1144B9D46402292029A1A46
:10017000924600218B460F461348144A121A01F08A
:1001800013F90F4B002B00D098470E4B002B00D0DB
:1001900098470020002104000D000D48002802D0DF
:1001A0000C4800E000BF01F0D9F82000290000F061
:1001B000ABF801F0BDF8C0460000080000100020B8
:1001C00000000000000000007000002094000020EB
:1001D000000000000000000080B582B000AF021CEB
:1001E000FB1D1A70064BFA1D1278111C1F220A40C3
:1001F0000121081C9040021C1A60BD4602B080BD5F
:1002000000E100E080B500AFBD4680BD90B583B091
:1002100000AF021C3960FB1D1A70FB1D1B78052BFB
:1002200003D83B680F2B00D8C0460948FB1D1A783D
:100230003B6801210C1C9C40231C191C131CDB0077
:100240009B189B00C31810335960BD4603B090BD86
:100250000060004090B583B000AF021C3960FB1D08
:100260001A70FB1D1B78052B03D83B680F2B00D899
:10027000C0460948FB1D1A783B6801210C1C9C40B4
:10028000231C191C131CDB009B189B00C318103384
:100290001960BD4603B090BD0060004080B582B0DB
:1002A00000AF786039607B683A689A61BD4602B0F9
:1002B00080BDC04680B582B000AF786039607B6891
:1002C000DA683B681A437B68DA60BD4602B080BDDD
:1002D00080B582B000AF786039607B683A68DA61D7
:1002E000BD4602B080BDC04680B500AF054B181CAE
:1002F0000121FFF7D3FF02200A21FFF787FFBD4648
:1003000080BDC0460000014080B586B000AF3B1DF7
:1003100000221A6000225A6000229A6000221A739A
:100320003B1D01221A703B1D01225A70FFF76AFF24
:10033000254B181C012100F035FA02200A21042265
:10034000002300F0E5FD02200A21FFF783FF0320D0
:100350000121012200F0C0FC042000F05BFC03201E
:10036000152100F013FD0120012100F01BFA174BAD
:10037000181C012100F016FA154B181C012100F081
:1003800011FA124B181C012100F084F901200521FB
:1003900000F08AFB0F4A3B1D101C191C00F07EFE6A
:1003A0000B4B181C00F050FA031C7B61094B181C06
:1003B0001521FFF78DFF074B181C0121FFF77AFF6E
:1003C0000220FFF709FFFEE7007202001081020021
:1003D000000202000000014080B584B000AF7860E8
:1003E0000023FB6080231B06BB6005E0FB68013334
:1003F000FB60BB685B08BB607B68BA681340F5D0E4
:10040000FB68181CBD4604B080BDC04680B586B0F0
:1004100000AFF860B9607A60FB681B687B617A683E
:10042000012313407B60BB680122101C9840031C11
:10043000DB437A691A40BB687968081C9840031C42
:100440001A43FB681A60BD4606B080BD80B582B015
:1004500000AF0A4B5B687B607A6807231340012B6F
:1004600006D87B6807229343012213437B60C04672
:10047000024B7A685A60BD4602B080BD00000C4055
:1004800080B584B000AF78607B68002B05D07A68B7
:1004900080231B029A4200D8C0467B68181CFFF7D5
:1004A0009BFF031C1F22D31AFB60FB68181CBD4670
:1004B00004B080BD80B584B000AF7860104B5B683D
:1004C000FB607A680F4B9A420AD97A680E4B9A42BF
:1004D00006D8FB680722934301221343FB60C04602
:1004E0007A68084B9A4204D8FB6807229343FB6062
:1004F000C046034BFA685A60BD4604B080BDC04692
:1005000000000C400024F4000048E80180B582B0EF
:1005100000AF1A4B5A69E023DB001340802292009F
:10052000934216D080229200934206D8002B16D018
:100530008022520093420FD017E0C02292009342D3
:1005400004D0E022D20093420CD00EE00C4B7B6032
:100550000EE00C4B7B600BE00B4B7B6008E00B4B21
:100560007B6005E00A4B7B6002E000237B60C046B5
:100570007B68181CBD4602B080BDC04600800C40A0
:1005800040420F00C0CF6A00C0D8A700809FD500AE
:10059000406F400190B583B000AFFC1C0E4B181C9F
:1005A00000F0E6F9031C2370FB1C1B78072B06D018
:1005B000082B09D100F038FE031C7B6007E0FFF731
:1005C000A5FF031C7B6002E000237B60C0467B68C4
:1005D000181CBD4603B090BD0400180080B584B05F
:1005E00000AF78607B68002B02D07B68012B00D1C4
:1005F000C0461C4B9A6A7B685B00DA4003231340B9
:10060000012B05D014D3022B07D0032B0AD021E0F5
:1006100000F074FE031CFB601FE000F07FFE031C73
:10062000FB601AE000F0E2FD031C5B08FB6014E0D5
:100630000C4B9A6A7B6804339B00111CD9400B1C3D
:10064000002B04D000F062FE031CFB6005E00023D9
:10065000FB6002E00023FB60C046FB68181CBD463F
:1006600004B080BD00800C4080B582B000AF7860DF
:10067000074B5A6D0123134000D005E0C046044BE0
:100680001B6D7A681340FAD1BD4602B080BDC046EA
:1006900000800C4080B584B000AF786039607B6822
:1006A0001A090F231340FB60FB68022B22D002D8EB
:1006B000012B05D06DE0032B37D0042B4FD068E021
:1006C0003B68002B05D03A6880239B009A4200D8F3
:1006D000C0463B68181CFFF7D3FE031C3B602E4B43
:1006E0002D4A92680F21101C8843011C3A680A4366
:1006F0009A604EE0FFF7AAFE3B68181CFFF7C0FEA9
:10070000031C3B60244B244A52680F21101C884371
:10071000011C3A680A435A6000F068FD031CBB6084
:10072000BB68181CFFF7C6FE33E07A681B4B9A4281
:1007300000D013E00420FFF797FF3B68181CFFF779
:100740009FFE031C3B60144B134A926E0F21101C3A
:100750008843011C3A680A439A66C04619E07A68E1
:100760000F4B9A4200D013E04020FFF77DFF3B681B
:10077000181CFFF785FE031C3B60074B064A126FEF
:100780000321101C8843011C3A680A431A67C046BB
:10079000C046BD4604B080BD00800C403004080057
:1007A0004005140080B586B000AF78600A1CFB1CC1
:1007B0001A7000233B617B681A0A0F231340062B33
:1007C00030D89A00194BD3181B689F46184B7B6191
:1007D00012E0184B7B610FE0174B7B610CE0174B6D
:1007E0007B6101233B6107E0154B7B6110233B617B
:1007F00002E0144B7B61C0467B681A0B1F23134039
:10080000FB603B69002B03D03B69181CFFF72CFFF2
:10081000FB1C1B787969FA68081C111C1A1CFFF76D
:10082000F5FD00E0C046BD4606B080BDD413000013
:1008300008800C4044800C4040800C4058800C40A4
:1008400060800C4078800C4080B584B000AF786048
:100850007A68F8239B0313408022120393424CD002
:1008600080221203934213D88022920293422AD00C
:1008700080229202934202D8002B1FD06DE080228A
:10088000D20293422ED0C022D20293422FD064E0F3
:10089000A0225203934246D0A0225203934204D88E
:1008A00090225203934238D057E0C0225203934221
:1008B00049D0D022520393424AD04EE000F0B4FC1B
:1008C000031CFB604CE000F0AFFC031CFB60274BFB
:1008D0009B681A1C0F231340FA68111CD9400B1C8B
:1008E000FB603DE000F082FC031CFB6038E0002070
:1008F000FFF774FE031CFB6032E00020FFF76EFE82
:10090000031CFB60194B9B6E1A1C0F231340FA68E3
:10091000111CD9400B1CFB6022E00120FFF75EFE9A
:10092000031CFB601CE00120FFF758FE031CFB606A
:100930000E4B1B6F1A1C03231340FA68111CD9407D
:100940000B1CFB600CE0FFF725FE031CFB6007E0BF
:10095000FFF7DCFD031CFB6002E00023FB60C046E8
:10096000FB68181CBD4604B080BDC04600800C402A
:1009700080B584B000AF78603B1C0F3301221A7041
:100980007A680F231340BB60BB68022B30D002D8BB
:10099000012B06D078E0032B50D0042B00D178E057
:1009A00072E0404BDA6AF0239B011340802252012F
:1009B00093420DD080229201934204D080221201F2
:1009C00093420AD00EE03B1C0F3302221A700EE055
:1009D0003B1C0F3303221A7009E03B1C0F33042227
:1009E0001A7004E03B1C0F3305221A70C04651E018
:1009F0002C4B9A6A03231340022B08D0032B0BD0F5
:100A0000012B0ED13B1C0F3303221A7015E03B1C47
:100A10000F3302221A7010E03B1C0F3306221A70AB
:100A20000BE0204B9A6A80235B02134004D03B1CEE
:100A30000F3309221A7000E0C0462BE0194B9A6A66
:100A40000C231340082B08D00C2B0BD0042B0ED1F9
:100A50003B1C0F3303221A7015E03B1C0F3302229C
:100A60001A7010E03B1C0F3306221A700BE00D4B7E
:100A70009A6A80235B03134004D03B1C0F33092286
:100A80001A7000E0C04605E03B1C0F3300221A70CC
:100A900000E0C0463B1C0F331B78181CBD4604B059
:100AA00080BDC04600800C4080B588B000AF786043
:100AB0000A1CFB1C1A700323FB613B1C1B33032223
:100AC0001A7000237B617A680F231340FB60FB6878
:100AD000012B05D000D288E0032B00D985E03EE051
:100AE000FB1C1B78092B00D981E09A00434BD318DB
:100AF0001B689F460423FB613B1C1B3300221A70BA
:100B000015E00323FB613B1C1B3301221A700EE02E
:100B10000223FB613B1C1B3302221A7007E00123F6
:100B2000FB613B1C1B3303221A7000E0C0463B1CD8
:100B30001B331B78181C0121012200F0CDF8FFF7B0
:100B400085FC2F4BFA695A6200F0D4F900F04EFB95
:100B5000031CBB60BB68181CFFF7ACFC4AE0FB1C25
:100B60001B78092B45D89A00264BD3181B689F4643
:100B700000233B611DE000200121012200F0ACF8C0
:100B800002233B6115E001200121012200F0A4F8BD
:100B900001233B610DE01C4B181C02210122FFF7D1
:100BA00035FC03233B6104E000233B6101237B61AF
:100BB000C046FB68022B0BD1114B114A916A134AB4
:100BC00011403A6911437A6912040A439A6211E0AA
:100BD0000B4B0B4A916A0E4A11403A69920011433D
:100BE0007A6912050A439A6204E0C04602E0C046F0
:100BF00000E0C046BD4608B080BDC046F01300000E
:100C000000800C401814000040800C40FCFFFEFFE8
:100C1000F3FFEFFF90B587B000AF021CFB1D1A7009
:100C2000FB1D1B78042B4DD89A00284BD3181B684A
:100C30009F46274BDA6AFF2313407B611AE0244B5F
:100C4000DA6AFF231B0213401B0A7B6112E0204B70
:100C5000DA6AFF231B0413401B0C7B610AE01C4B68
:100C6000DB6A1B0E7B6105E0194B1A6BFF231340F7
:100C70007B61C0463C1C13340120FFF779FE031C46
:100C800023703B1C13331B78052B01D1FFF7DEFBD0
:100C9000104B104AD268D20AD102FA1D1278120201
:100CA00011437A690A43DA603B1C13331B78052B26
:100CB00009D100F09BFA031CFB60FB68181CFFF7CE
:100CC000F9FB00E0C046BD4607B090BD40140000EF
:100CD000B081E00F00800C4080B586B000AFFB1DF6
:100CE0001870BB1D19707B1D1A70FB1D1B78052B1E
:100CF00042D89A00234BD3181B689F4601233B61BF
:100D00000223FB6002237B611EE004233B61082376
:100D1000FB6008237B6117E010233B612023FB600D
:100D200020237B6110E040233B618023FB60802314
:100D30007B6109E080235B003B6180239B00FB60BB
:100D400080239B007B61C046BB1D1B78002B0DD010
:100D50000D4B3A691A627B1D1B78002B09D0C046E7
:100D6000094BDB6A7A691340FAD002E0064BFA6855
:100D70001A6200F0BFF802E0C04600E0C046BD467F
:100D800006B080BD5414000000800C4080B582B0D5
:100D900000AF021C3960FB1D1A70FB1D1B78032B72
:100DA00013D0042B20D0012B00D02CE03A687F23F5
:100DB00013403B60154B154A12697F21101C884374
:100DC000011C3A680A431A611DE03A68FF23134088
:100DD0003B600E4B0D4AD268FF21101C8843011C5A
:100DE0003A680A43DA600EE03A68FF2313403B603A
:100DF000064B064A5269FF21101C8843011C3A68C1
:100E00000A435A61C046BD4602B080BD00800C4016
:100E100090B58BB000AF344A80235B01D358BB61DF
:100E2000314A324BD258BB691340BB61BB69002BBE
:100E300000DAFEE72C4B9B6B7B61BB697A69134040
:100E40003B620023FB6148E000237B623AE03A6AA0
:100E50000123134030D0244B9B683B6101227B6A05
:100E6000111C99400B1CFB601F4A214BF968D150A3
:100E70007B6A1B013A69D318DB68BB60BB68002B37
:100E80001AD0BB681B7A7B60BB681B7A0122534077
:100E9000DAB2BB681A72BB681B68002B0CD0BB6847
:100EA0001C68796A7B685A1E9341DAB2BB685B683A
:100EB000081C111C1A1CA0473B6A5B083B627B6A3A
:100EC00001337B623B6A002BC1D17B69DB43BA698A
:100ED00013403B62FB690133FB61FB69012BB3DD0E
:100EE000BD460BB090BDC04600200C400C10000069
:100EF0000810000080B500AF034BDB6A9AB2034BC9
:100F00001A80BD4680BDC04600800C408C00002089
:100F1000B0B584B000AFB9607B603B1C0F33011CDF
:100F200019703B1C0E331A703B1C0F331B78052BBA
:100F300003D8BB680F2B00D8C0463B1C0E331B7870
:100F4000002B25D07B68002B11D052483B1C0F335F
:100F50001A78BB6801210C1C9C40231C191C131C13
:100F6000DB009B189B00C3181033196010E0494840
:100F70003B1C0F331A78BB6801210D1C9D402B1CB4
:100F8000191C131CDB009B189B00C31810335960FD
:100F9000BB68072B25D83F483B1C0F331A783D4CC4
:100FA0003B1C0F3319780B1CDB005B189B00E3180C
:100FB0005B68B96889000F24251C8D40291CC94332
:100FC00019403B1C0E331C78BB689B00251C9D40C0
:100FD0002B1C1943131CDB009B189B00C318596082
:100FE0002AE02C483B1C0F331A782A4C3B1C0F3349
:100FF00019780B1CDB005B189B00E31808331B6897
:10100000B968254C091989000F24251C8D40291C1D
:10101000C94319403B1C0E331C78BB681E4D5B193D
:101020009B00251C9D402B1C1943131CDB009B18A7
:101030009B00C318083319603B1C0E331B78002B30
:1010400025D17B68002B11D012483B1C0F331A7836
:10105000BB6801210C1C9C40231C191C131CDB00C9
:101060009B189B00C3181033196010E009483B1C03
:101070000F331A78BB6801210D1C9D402B1C191CD5
:10108000131CDB009B189B00C31810335960BD462E
:1010900004B0B0BD00600040F8FFFF3F80B582B0F3
:1010A00000AF786039607A68364B9A4203D07A682C
:1010B000354B9A4200D1C0463B681B780122534011
:1010C000DBB2002B02D07B6802225A607B680022D0
:1010D0005A623B689B781A063B68DB781B041A430C
:1010E0003B689B799B021A433B68DB791B021A43DE
:1010F0003B681B7A1A433B685B78002B01D0402386
:1011000000E000231A433B685B7A002B01D0802368
:1011100000E000231A433B689B7A002B01D0202378
:1011200000E000231A433B68DB7A002B01D0102338
:1011300000E000231A433B681B79002B02D0802378
:101140009B0100E000231A433B685B79002B02D02F
:1011500080235B0500E000231A433B681B7B002BC8
:1011600001D0082300E000231A437B681A603B6823
:101170001B78002B02D07B6801225A60BD4602B06A
:1011800080BDC04600000140000401400648804781
:101190000649074A074B9B1A03DD043BC858D05049
:1011A000FBDC054800470000F51200008014000039
:1011B000000000207000002061010000FEE7FEE753
:1011C000FEE7FEE7FEE7FEE7FEE7FEE7FEE7FEE7F7
:1011D000FEE7FEE7FEE7FEE7FEE7FEE7FEE7FEE7E7
:1011E000FEE7FEE7FEE7FEE7FEE7C04680B582B019
:1011F00000AF00F019F8031C7B60094B5B681A1CF8
:101200000F2313407A68111CD9400B1C7B60054BDF
:101210007A681A607B68181CBD4602B080BDC04663
:1012200000800C409000002080B582B000AF294BB8
:10123000DA6AF0239B0113408022520193420CD0C2
:1012400080229201934204D080221201934208D05E
:101250000BE0214B1B687B6036E080231B027B6028
:1012600032E01E4B1B687B602EE01A4BDA68E023ED
:10127000DB00134080229200934218D0802292001B
:10128000934206D8002B18D080225200934211D0EE
:1012900016E0C0229200934206D08022D2009342F0
:1012A0000ED10F4B7B600EE00E4B7B600BE00E4BC4
:1012B0007B6008E00D4B7B6005E00D4B7B6002E03E
:1012C00000237B60C046C0467B68181CBD4602B048
:1012D00080BDC04600800C400400002000000020BB
:1012E000406F4001809FD500C0D8A70040B5640082
:1012F000804F120080B500AFBD4680BD80B500AF05
:1013000080231B02181CBD4680BDC04680B500AFBF
:10131000FA239B00181CBD4680BDC04680B500AFB7
:10132000024B1B68181CBD4680BDC046040000204F
:10133000084B10B5041C002B02D0002100E000BFB8
:10134000054B1868836A002B00D09847201C00F0DA
:1013500033F8C046000000007014000070B50E4B5A
:101360000E4D0024ED1AAD101E1CAC4204D0A3009B
:10137000F35898470134F8E700F020F8084B094D7E
:101380000024ED1AAD101E1CAC4204D0A300F3588B
:1013900098470134F8E770BD68000020680000201D
:1013A000680000206C000020031C8218934202D0C9
:1013B00019700133FAE77047FEE7C046F8B5C0463A
:1013C000F8BC08BC9E467047F8B5C046F8BC08BCDF
:1013D0009E46704724080000CC070000D20700009A
:1013E000D8070000DE070000E8070000F207000051
:1013F000EE0B0000EE0B0000F40A0000020B0000F0
:10140000100B00001E0B0000EE0B0000EE0B0000A6
:10141000EE0B00002C0B0000F20B0000700B000024
:10142000760B0000860B0000F20B0000F20B0000B0
:10143000960B0000F20B0000F20B0000A80B00005E
:10144000320C00003E0C00004E0C00005E0C000050
:10145000680C0000340D0000260D00000A0D00008D
:10146000FC0C0000180D00007C0D00004300000083
:0814700008000020000000004C
:08147800E8ECFF7F0100000019
:1014800000366E0100800000000000000000000037
:10149000000000000000000000000000000000004C
:1014A00000000000000000006C14000000000000BC
:1014B000000000000000000000000000000000002C
:1014C000000000000000000000000000000000001C
:1014D000000000000000000000000000000000000C
:1014E00000000000000000002901000001010000D0
:040000030000118D5B
:00000001FF
